:020000040800F2
:10000000A00B00204902000851020008530200081A
:1000100055020008570200085902000800000000BD
:100020000000000000000000000000005B0200086B
:100030005D020008000000005F0200086102000885
:1000400063020008630200086302000863020008FC
:100050006302000863020008B50400086302000898
:1000600063020008630200086302000863020008DC
:1000700063020008630200086302000863020008CC
:1000800063020008630200086302000863020008BC
:1000900063020008630200086302000863020008AC
:1000A000630200086302000863020008630200089C
:1000B000630200086302000863020008630200088C
:1000C000630200087105000863020008630200086B
:1000D0006302000863020008690600086302000862
:1000E000630200086302000863020008630200085C
:1000F000630200086302000863020008630200084C
:10010000630200086302000863020008630200083B
:10011000630200086302000863020008630200082B
:10012000630200086302000863020008630200081B
:10013000630200086302000863020008630200080B
:1001400063020008630200086302000863020008FB
:1001500063020008630200086302000863020008EB
:1001600063020008630200086302000863020008DB
:100170006302000863020008630200080000000038
:10018000630200086302000800F002F800F04CF877
:100190000AA090E8000C82448344AAF10107DA45E2
:1001A00001D100F041F8AFF2090EBAE80F0013F0E8
:1001B000010F18BFFB1A43F001031847280B00007A
:1001C000480B00000A4410F8014B14F00F0508BF5B
:1001D00010F8015B240908BF10F8014B6D1E05D013
:1001E00010F8013B6D1E01F8013BF9D1641E03D0EC
:1001F000641E01F8015BFBD19142E4D3704700001B
:100200000023002400250026103A28BF78C1FBD81F
:10021000520728BF30C148BF0B6070471FB500F0C0
:100220005BFD1FBD10B510BD00F031F81146FFF7A2
:10023000F5FF00F0CFFC00F04FF803B4FFF7F2FF3A
:1002400003BC00F057F80000094880470948004700
:10025000FEE7FEE7FEE7FEE7FEE7FEE7FEE7FEE776
:10026000FEE7FEE704480549054A064B70470000D3
:100270000506000889010008A0050020A00B002049
:10028000A0070020A0070020704770477047754600
:1002900000F02CF8AE4605006946534620F00700F2
:1002A000854618B020B5FFF7DDFFBDE820404FF0D0
:1002B00000064FF000074FF000084FF0000B21F050
:1002C0000701AC46ACE8C009ACE8C009ACE8C0091D
:1002D000ACE8C0098D46704710B50446AFF3008006
:1002E0002046BDE81040FFF7A8BF00000048704757
:1002F0004005002001491820ABBEFEE726000200A1
:1003000070472DE9FF4F83B004460D4690462E46B8
:100310003546701CC6B2605D02903046711CCEB28C
:1003200014F800904FEAA9123046711CCEB2205C3E
:1003300002EB8000C7B209F03F093046711CCEB213
:1003400014F800A03046711CCEB2205C4AEA002AA4
:100350002B4603222146002000F084F801900198EA
:10036000824536D137B9109902980870069880F8FE
:10037000009030E0A84502DBA8EB050002E008F59C
:100380008070401B0090F91D009881421EDC002FF8
:100390001ADDF019C6B23046711CCEB214F800A0B6
:1003A000A05D4AEA002AE81CC3B2BA1C21460198A3
:1003B00000F058F801900198824505D110990298F3
:1003C0000870069880F80090B34604E04FF0FF3BB9
:1003D00001E06FF0010B584607B0BDE8F08F2DE942
:1003E000F04F81468A4616461C46DDF824B00025AB
:1003F00028466D1C04F800904AEA8610C2B22846CE
:100400006D1C2254C6F3850228466D1C225400231D
:1004100003222146184600F025F8074628466D1CA1
:1004200027543A1228466D1C22544FF0000806E06B
:100430001BF8082028466D1C225408F10108B0451D
:10044000F6DB0323B21C2146384600F00BF80746C2
:1004500028466D1C27543A1228466D1C2254BDE8CC
:10046000F08F000030B50BE01C465D1CEBB20C5D5C
:1004700084EA2024054D35F8144084EA0024A0B213
:10048000141EA2F10102EFD130BD000000000020D7
:1004900070B504460025A14203DDA018884200DCA7
:1004A0000125A14204DAC818A618B04200DB0125D4
:1004B000E8B270BD0E48006840F001000C490860C9
:1004C0004FF0C040808A0B4908804FF0C040C08A7E
:1004D00048804FF0C040008B88804FF0C040408B78
:1004E000C88005480068401C034908607047000048
:1004F000143C01402E0200201802002010B51848BC
:10050000006840F00400164908601648006820F0B2
:1005100003001449086013480830006840F00200E6
:100520001049083108600E481430006840F48040DB
:100530000B491431086001200B4908600020091D97
:10054000086001200849083908600220074908604E
:10055000062000F04BF802204FF0C041488210BD49
:100560003038024000080240083C01400838014091
:100570001949086800F0010131B11849184A126898
:10058000895C154A121F116000F0020111B1124975
:10059000091D096800F08401842911D10E4914391C
:1005A000096801F4007159B90B491439096841F41B
:1005B0000071094A143A116001210A4A11600AE0E7
:1005C00000F0800139B108490968054A1268895C60
:1005D000014A121F11607047145800400C0200209D
:1005E00014020020100200200802002000F01F0268
:1005F000012191404209920002F1E022C2F800116B
:10060000704700001448006840F470001249086008
:100610001248006840F001001049086000200F49AE
:10062000083108600D4800680D4908400B49086012
:100630000C48091D0860081F006820F48020091F6D
:100640000860002005490C3108604FF00060024945
:10065000803908607047000088ED00E000380240F3
:10066000FFFFF6FE103000240A48006800F020006A
:1006700060B10848001D00680749084A128888547C
:1006800006480078401CC0B2044908800020014997
:100690000860704700440040400200200002002033
:1006A000F8B506460C460027012E02D0032E36D19F
:1006B0000FE005203549087010204870032088702D
:1006C0001520C870032008711520487106250127E0
:1006D00025E02046611CCCB22D49085CC0432D4961
:1006E000096808702046611CCCB22949085CC043E7
:1006F0002849096848702046611CCCB22449085C2E
:10070000C0432449096888700320234908600120F8
:100710002249086000F050F81825012700BF00BFEB
:100720009FB31F48006840B100201D4908601D4864
:10073000406940F001001B4948611448AAB21A4BB5
:10074000314600900120FFF74AFE1848006817491B
:100750000A68402191430840144908601448C06861
:1007600040F440101249C860E81D1149A4310860E6
:100770000F48D0F8A00040F001000D49C1F8A000DA
:100780000C480068401C0B490860F8BD400400207C
:100790004002002008020020140200201002002065
:1007A00028020020000002404003002000440040D6
:1007B000006002401C0200202A492B4A13680B608B
:1007C00052684A604FF0C041088A284A10700112EE
:1007D000517024490979C1F381010901214A126844
:1007E000C2F3014241EA8211204A91711D49097800
:1007F000C1F301111B4A127902F0030241EA82019E
:10080000184A1288C2F3813241EA0211154A12785D
:10081000C2F3810241EA8211144AD1711149096877
:10082000890F104A1268C2F3017241EA82010F4A2D
:1008300011720F49098888B20112517290720C49E5
:10084000498888B20112D17210730949898888B227
:100850000112517390730649C98888B20112D1738D
:100860001074704738020020060000604004002029
:100870002E0200203EB526E001A80090184802781C
:100880001848017802AB1848FFF73BFD0446002CDE
:100890000EDB9DF80400062807D112480078401DA1
:1008A000C1B29DF80800FFF7FBFE0E490C8015E071
:1008B000601C00B912E0A01C28B90A480078401C4E
:1008C000C0B2084908804FF48073052204480188AB
:1008D00004480088FFF7DCFD0028CDD100BF3EBDF5
:1008E00000020020060200204002002009480068A3
:1008F00040F40010074908600748084908600848A4
:100900000649A039C1F8A800064804490C3108601E
:10091000704700003038024040040008A0600240E8
:1009200004440040400300202648006840F078005E
:10093000244908602448254908602548234908318E
:100940000860244821492031086023491F4841623A
:1009500022482349086023488860234808624FF0F2
:10096000CC311F4841622148214908602148204973
:100970000831086020481E492031086001041C48E5
:10098000416240F2AA201D49086040F2FF301B4935
:10099000083108601A4819492031086009480830B0
:1009A000006840F0010007490831086043F2110077
:1009B0004FF020410860134848601348134908600D
:1009C00070470000303802408A8A2AA0000C02409A
:1009D000CFCF3FF0CCC0CCC0CC0C00CC0A80AAAAB0
:1009E000001002400FC0FFFFCC0000C0AA0A00AAFE
:1009F00000140240FF0F00FFCCCCCC0000180240D6
:100A0000CCCC0C00F2081402F2081F02040100A072
:100A100010B52248006840F00200204908602048D4
:100A2000006840F420001E490860081D006840F47A
:100A30004060091D0860081D006840F42000091D81
:100A400008601748406A40F48841154841622120F7
:100A5000FFF7CCFD11481030006840F480000F49CA
:100A6000103108604FF400400E4908600020086013
:100A7000CF200C491C31086048150A49091D08603F
:100A8000081F006840F00100091F086000200649A7
:100A90000860401E0549086010BD00003038024063
:100AA0000004024000580040100200201402002000
:100AB00000202949096841F48031274A116000BFAC
:100AC0002549096801F400310029F9D0411C084684
:100AD000B1F57A7FF4DB20494031096841F080515B
:100AE0001D4A403211601D49096841F480411B4A8A
:100AF000116019490831096841F41441164A083255
:100B000011601749121F1160111F096841F08071AF
:100B1000121F116000BF1049096801F0007100291F
:100B2000F9D040F205710F4A11600B49083109688C
:100B300021F00301084A083211601146096841F0AA
:100B40000201116000BF04490831096801F0080181
:100B50000029F8D0704700000038024000700040C3
:100B600018544004003C024010B51748006840F09B
:100B70000100154908601548006840F0A1001349BC
:100B800008600846806840F0F30088600846006A04
:100B900040F4EE4008622620FFF728FD0A48103096
:100BA000006840F40030084910310860B32008495B
:100BB0000860802006490C3108604AF22C00044984
:100BC000091D086010BD00003038024000000240DE
:100BD00008440040FFF76CFFFFF7A6FEFFF7C4FFD5
:100BE000FFF784FEFFF714FFFFF788FC042031496C
:100BF00008805DE0FFF73EFE2F480068A0B12F4857
:100C0000006800F4007078B900202B4908602C4877
:100C10000068401E2A490860002805DB2748006854
:100C200040F480702549086026480068B0F5FA7FD6
:100C30001ADB0020234908602348006830B11D48B2
:100C4000008840F001001B49088005E01948008831
:100C500020F00100174908801B48006808B90120EE
:100C600000E000201849086018480068B0F5FA7FD5
:100C70001ADB0020154908601548006830B10D489E
:100C8000008840F002000B49088005E00948008810
:100C900020F00200074908800D48006808B90120CB
:100CA00000E000200A4908600248008809490860FD
:100CB000A0E700002C020020100200200058004095
:100CC000140200201C020020240200201802002030
:100CD000200200201E0000604FF04070E1EE100A7C
:100CE00070470000040D00080000002040020000D2
:100CF000C4010008140F0008400200206009000031
:100D0000000200083110FF2110422063308440A50A
:100D100050C660E770088129914AA16BB18CC1ADC2
:100D2000D1CEE1EFF13112100273325222B552945A
:100D300042F772D662399318837BB35AA3BDD39C12
:100D4000C3FFF3DEE36224433420040114E664C7E6
:100D500074A44485546AA54BB528850995EEE5CF62
:100D6000F5ACC58DD55336722611163006D776F6FA
:100D7000669556B4465BB77AA719973887DFF7FEB2
:100D8000E79DD7BCC7C448E5588668A77840086186
:100D90001802282338CCC9EDD98EE9AFF948896902
:100DA000990AA92BB9F55AD44AB77A966A711A509A
:100DB0000A333A122AFDDBDCCBBFFB9EEB799B5852
:100DC0008B3BBB1AABA66C877CE44CC55C222C0326
:100DD0003C600C411CAEED8FFDECCDCDDD2AAD0BA2
:100DE000BD688D499D977EB66ED55EF44E133E323A
:100DF0002E511E700E9FFFBEEFDDDFFCCF1BBF3AF2
:100E0000AF599F788F20148891A981CAB1EBA10CAA
:100E1000D12DC14EF16FE18010A190EDC230E320E1
:100E20000450254046706760B9839893FBA3DAB3FA
:100E30003DC31CD37FE35EF3B1029012F322D232A2
:100E40003542145277625672EAB5CBA5A8958985CA
:100E50006EF54FE52CD50DC5E234C324A0148104F2
:100E60006674476424540544DBA7FAB79987B8979A
:100E70005FE77EF71DC73CD7D326F2369106B01642
:100E800057667676154634564CD96DC90EF92FE95A
:100E9000C899E9898AB9ABA9445865480678276892
:100EA000C018E1088238A3287DCB5CDB3FEB1EFB3A
:100EB000F98BD89BBBAB9ABB754A545A376A167AE2
:100EC000F10AD01AB32A923A2EFD0FED6CDD4DCD0A
:100ED000AABD8BADE89DC98D267C076C645C454C32
:100EE000A23C832CE01CC10C1FEF3EFF5DCF7CDFDA
:100EF0009BAFBABFD98FF89F176E367E554E745E82
:100F0000932EB23ED10EF01E081A55040020404226
:040F1000440218017E
:0400000508000249A4
:00000001FF
